:020000040800F2
:10000000305A0120F5020008BB4C00083B0A0008EA
:10001000B94C000889080008595300080000000086
:100020000000000000000000000000003D02000889
:10003000A10800080000000091020008F14E00082D
:100040000F0300080F0300080F0300080F03000848
:100050000F0300080F0300080F0300080F03000838
:100060000F0300080F0300080F0300080F03000828
:100070000F0300080F0300080F0300080F03000818
:100080000F0300080F0300080F0300080F03000808
:100090000F0300080F0300080F0300080F030008F8
:1000A000614F00080F0300080F0300080F0300084A
:1000B0000F030008D54F00080F0300080F030008C6
:1000C0000F0300080F0300080F0300080F030008C8
:1000D0000F030008815100080F0300080F030008F8
:1000E0000F0300080F0300080F0300080F030008A8
:1000F0000F0300080F0300080F0300080F03000898
:100100000F0300080F0300080F0300080F03000887
:100110000F0300080F0300080F0300080F03000877
:100120000F0300080F0300080F0300080F03000867
:100130000F0300080F0300080F0300080F03000857
:100140000F0300080F0300080F0300080F03000847
:100150000F0300080F0300080F0300080F03000837
:100160000F0300080F0300080F0300080F03000827
:100170000F0300080F0300080F0300080F03000817
:100180000F0300080F03000800F002F800F047F822
:100190000AA090E8000C82448344AAF10107DA45E2
:1001A00001D100F03CF8AFF2090EBAE80F0013F0ED
:1001B000010F18BFFB1A43F001031847E09000003D
:1001C00000910000103A24BF78C878C1FAD85207CD
:1001D00024BF30C830C144BF04680C6070470000C1
:1001E0000023002400250026103A28BF78C1FBD840
:1001F000520728BF30C148BF0B607047642900F028
:100200001981782900F05281732900F0768200204C
:1002100070471FB507F036FC1FBD10B510BD00F0CC
:10022000E0FA1146FFF7F5FF05F00CFA00F0FEFAD0
:1002300003B4FFF7F2FF03BC05F08FF82A4B1968EF
:100240000868B0E8F04F80F30988BFF36F8F4FF074
:10025000000080F311887047000000000648006825
:10026000006880F3088862B661B6BFF34F8FBFF3B2
:100270006F8F00DF00BF00BF08ED00E0DFF80C006B
:10028000016841F470010160704700BF88ED00E033
:10029000EFF30980BFF36F8F134B1A681EF0100F36
:1002A00008BF20ED108A20E9F04F106008B44FF02D
:1002B000500080F31188BFF34F8FBFF36F8F06F0AC
:1002C00009FC4FF0000080F3118808BC1968086829
:1002D000B0E8F04F1EF0100F08BFB0EC108A80F3AA
:1002E0000988BFF36F8F7047AC000020EFF30580E3
:1002F000704700000948804709480047FEE7FEE7CD
:10030000FEE7FEE7FEE7FEE7FEE7FEE7FEE7FEE7C5
:1003100004480549054A064B70470000054F000890
:100320008901000830540120305A01203056012044
:1003300030560120704700000FB4044910B503AADD
:10034000029800F0DFF910BC5DF814FB7400002087
:100350000FB41CB5074B06AA7B446946009005986C
:1003600000F0A1F90020694600F0B0F91CBC5DF86E
:1003700014FB0000710300002DE9F0410E46044615
:10038000002020622046E168884730B3252805D048
:10039000D4E901219047206A401CF2E7E168204639
:1003A00000278847050018D0A5F14100192802D878
:1003B00020354FF400673246294620462760FFF774
:1003C0001DFF40B1012804D0F61D26F007060836AF
:1003D000D8E7361DD6E72846DAE7206ABDE8F0817F
:1003E00070B50C460546012A05D02878800600D550
:1003F000EA69002302E0012305E05B1C934202D27C
:10040000E05C0028F9D1A869E618C01AA861286A3A
:10041000184428622846AFF3008004E0D5E90121A2
:1004200014F8010B9047B442F8D32846AFF300808C
:1004300070BD00002DE9F0410646002410687529C2
:10044000314616A510D0AFF30080002802DA4042F2
:1004500013A507E031688A0701D512A502E0490714
:1004600004D511A5012401E0AFF3008000210A2288
:1004700006F1240709E0B0FBF2FCB0FBF2F302FB4B
:100480001C00303078541846491C0028F3D123460C
:100490002A463046BDE8F04100F0A7B80000000051
:1004A0002D0000002B0000002000000070B5044665
:1004B0000D4621461068AFF300802188090502D55A
:1004C0000F4A7A4402E00E4A7A440E32002104F1C7
:1004D000240305E000F00F060009965D5E54491CF8
:1004E0000028F7D120780023000704D5702D02D012
:1004F00009B1022311322046BDE8704000F075B802
:10050000AE8D0000032A40F2308010F0030C00F0A2
:10051000158011F8013BBCF1020F624498BF11F83D
:1005200001CB00F8013B38BF11F8013BA2F10402F6
:1005300098BF00F801CB38BF00F8013B11F003036E
:1005400000F0F280083AC0F0088051F8043B083A05
:1005500051F804CBA0E80810F5E7121D5CBF51F874
:10056000043B40F8043BAFF30080D20724BF11F8EE
:10057000013B11F801CB48BF11F8012B24BF00F853
:10058000013B00F801CB48BF00F8012B704702F097
:10059000FF0343EA032242EA024200F002B84FF0AE
:1005A00000020429C0F0128010F0030C00F0F0806B
:1005B000CCF1040CBCF1020F18BF00F8012BA8BF4E
:1005C00020F8022BA1EB0C0100F0E2B85FEAC17C3D
:1005D00024BF00F8012B00F8012B48BF00F8012BC5
:1005E000704770477047704770472DE9F0470D46D8
:1005F00099469246044600F124080168880604D50D
:10060000E06921F01001216000E00120A84201DD35
:10061000471B00E00027A1697A1902EB0900081ABC
:10062000A0612078C00602D42046AFF300800026E7
:1006300008E0D4E901211AF806009047206A401C1E
:10064000761C20624E45F4DB2078C0060AD5204691
:10065000AFF3008006E0D4E9012130209047206A02
:10066000401C2062381EA7F10107F4DC07E0D4E942
:10067000012118F805009047206A401C2062281EBE
:10068000A5F10105F3DC2046AFF3008020780006D9
:1006900002D50220BDE8F0870120FBE701694A1C72
:1006A00002610878704700B58FB0CDE901310021B3
:1006B000059105497944CDE9031011466846FFF7D5
:1006C0005BFE0FB000BD0000E5FFFFFF0A6802F807
:1006D000010B0A60704710B5436913B1AFF3008096
:1006E00001E0FFF77DFE012010BD127800F124012A
:1006F0000A7000224A700122EDE711684FF0FF32C4
:10070000E9E70000074B70B50D467B44FFF7CBFFD0
:100710000446284600F061F810B14FF0FF3070BD7C
:10072000204670BDB34D000010B5203AC0F00B80DC
:10073000B1E81850203AA0E81850B1E81850A0E8E5
:100740001850BFF4F5AF5FEA027C24BFB1E818503F
:10075000A0E8185044BF18C918C0BDE810405FEAAF
:10076000827C24BF51F8043B40F8043B08BF70472B
:10077000D20728BF31F8023B48BF11F8012B28BF30
:1007800020F8023B48BF00F8012B70474FF00002F1
:1007900000B5134694469646203922BFA0E80C5077
:1007A000A0E80C50B1F12001BFF4F7AF090728BF52
:1007B000A0E80C5048BF0CC05DF804EB890028BFCE
:1007C00040F8042B08BF704748BF20F8022B11F0F7
:1007D000804F18BF00F8012B7047007B00F08000AD
:1007E0007047754600F02CF8AE4605006946534642
:1007F00020F00700854618B020B5FFF789FDBDE859
:1008000020404FF000064FF000074FF000084FF077
:10081000000B21F00701AC46ACE8C009ACE8C00908
:10082000ACE8C009ACE8C0098D46704710B5044675
:10083000AFF300802046BDE81040FFF7F9BC000090
:1008400000487047CC5301207CB50121202004F0E2
:1008500071FA01208DF8040000208DF806000320B5
:100860008DF805000220074D4FF480748DF80700C5
:1008700000946946284600F089F82146284600F091
:10088000D8F87CBD00140240FEE7000003480022B7
:10089000026042605321312004F0B6BB60000020AA
:1008A000704700008000A0F1C0400029016802D01C
:1008B00041F0010101E0024A11400160704700006F
:1008C000FEFF0F0010B5D0E901121143D0E9032358
:1008D0001A4311434269114382691143C2691143AA
:1008E000026A1143426A1143826A1143C26A114388
:1008F000026B114302689200A2F1C042116081684C
:10090000082907D101688900A1F1C0410A6842F0B5
:1009100040020A60416BD1E9002342EA03128B686E
:100920008C891B0243EA04431A430B8A42EA0352AE
:100930000B7D896942EA03620A4301688900A1F1DB
:10094000C0414A60C16AB1F5804F08D000686FF0BD
:1009500070418000A0F1C040C0F8041110BD816B4F
:10096000D1E9002342EA03128B680C8A1B0243EA96
:1009700004531A430B7D896942EA036200680A4303
:100980008000A0F1C040C0F8042110BDF0B50022E5
:1009900001274FF0030C0B6807FA02F52B40AB421E
:1009A0002CD1066853000CFA03F4A64306600E79B6
:1009B000D0F800E09E4046EA0E0606600E79012E51
:1009C00001D0022E12D18668A64386604E79D0F8F7
:1009D00008E09E4046EA0E0686604668AE434660E2
:1009E00045688E799640B6B235434560C568A543E3
:1009F000C560CC799C40C3681C43C460521C102A5B
:100A0000C9D3F0BD4B07DB0E9A40C90810B500EB07
:100A10008100016A0F249C40A1430162016A1143D5
:100A2000016210BD0246002012690A4200D0012076
:100A300070474183704701837047FEE71CB5012171
:100A4000112004F077F91C20009000208DF804009C
:100A500003208DF8050001248DF8074069460648FB
:100A6000FFF794FF02208DF80700009469460348C1
:100A7000FFF78CFF1CBD0000001002400000024088
:100A80002DE9F0412E4C2F4F2F4D012608B1267035
:100A900001E02078A0B110212846FFF7C3FFB0B1D4
:100AA00008212846FFF7BEFF88B104212846FFF73A
:100AB000B9FF60B101213846FFF7B4FF012806D025
:100AC00010212846FFF7AEFF012824D035E00A2088
:100AD00004F0AAFC0020207010212846FFF7A2FF96
:100AE00080B108212846FFF79DFF70B104212846F8
:100AF000FFF798FF58B101213846FFF793FF01280F
:100B000007D01AE00120BDE8F0810220FBE70320B6
:100B1000F9E70420F7E708212846FFF783FF0128BB
:100B20000BD104212846FFF77DFF012805D10121C3
:100B30003846FFF777FF00B926700020E3E7000092
:100B40006C00002000000240001002401CB5204E46
:100B5000204DF06808B300235A1E01A906F0E4F8FE
:100B6000D8B19DF804101CA0FFF7E6FB9DF8040027
:100B7000012815D003280AD0042825D1D5F8A802C9
:100B800018B10020C5F8A8021EE00120FAE7D5F848
:100B9000A00218B10020C5F8A00215E00120FAE774
:100BA000641CE4B20E20B4FBF0F100FB11400849D4
:100BB00040F239131431E92231F820006F2180B25C
:100BC00000907E2000F0E2F90A2005F0CFFDC0E79A
:100BD0000000002000804242B4F2D3A1BDD3CAD5A8
:100BE000B0B4BCFCD6B5A3BA25640D0A0000000061
:100BF0002DE9F043184F0646002438887D88454388
:100C0000B888A0F5D041043902D1B879012808D0BC
:100C10000021084603F0D0FE04F01EF84FF0D84043
:100C200016E00020B8714FF02A09A7F80A904FF09B
:100C30002B08A7F80C80014603F0BEFE0120B87116
:100C4000A7F80A80A7F80C90E6E7A0F88060641C7B
:100C5000AC42FAD3BDE8F083280100202DE9F04F23
:100C60004A492A232B24898845F2105A4FF4305BD5
:100C70004FF4285E4FF448754FF0F00C49F24139BB
:100C80004FF4A07745F210364FF4F07280B13F4830
:100C90004FF00108494580F806800780A0F802C09F
:100CA00001D0B1423ED12C2505814381848157E09A
:100CB00036484FF00008494580F80680A0F800C08B
:100CC000478006D0A1F5D04CBCF1040C01D0B14254
:100CD0000CD12C2505814381A1F5D0438481043BAF
:100CE00001D0B14244D10780428041E0514507D153
:100CF000A0F808B0A0F80AE04FF42C5181810EE072
:100D0000A1F5C856633E06D02221018120214181F0
:100D1000212181812CE02C21018144818381028069
:100D2000458025E0A1F5D04CBCF1040C09D051451B
:100D30000BD1A0F808B0A0F80AE04FF42C5383813F
:100D400021E02C250581448109E0A1F5C85CBCF1B6
:100D5000630C12D02223038121234381202383812A
:100D6000A1F5D043043B01D0B14201D102804780BC
:100D7000BDE8F04F002003F01DBD4FF02C0CA0F893
:100D800008C04381848105804280E9E72801002072
:100D90002DE9FE4F0026A2EB000882465F1A701E66
:100DA00035468946B8F1000F02DD4FF0010102E03F
:100DB00003D14FF00001019102E0C8F10008019059
:100DC000002F02DD4FF0010002E003D14FF00000E0
:100DD000009002E0C7F1000700904046B84501DDF1
:100DE000044600E03C46601C4FF0000B029015E00A
:100DF0001FFA89F11FFA8AF000F016F846443D44C4
:100E0000A64202DD0199361B8A44A54202DD009903
:100E10002D1B89440BF101001FFA80FB02998B45C1
:100E2000E6DDBDE8FE8F000000B503F0C5FD03F070
:100E300013FF03484FF0D8410088A1F8800000BD9F
:100E400068000020F0B51C4615460E4607460B46C6
:100E5000FFF79EFF3A46234631461046FFF798FFBC
:100E600023462A4619463846FFF792FF2A4623466C
:100E70003146BDE8F0401046FFF78ABF2DE9F04348
:100E8000414D91460C460246060AA9882846A1F51E
:100E9000134340894FEA1428413B17D0A1F5A643DC
:100EA000103B13D0A1F5AA43103B13D02E46A1F559
:100EB000C857B3793688B61A761E633F23D0A1F59A
:100EC000D047043F3AD0012B4DD04DE003F0B8FE9F
:100ED000304639E003F0B4FE304603F0A5FE6889E1
:100EE000401C80B203F0ACFED0B203F09DFEA88996
:100EF00003F0A6FE404603F097FEA889401C80B28E
:100F000003F09EFE2BE003B9B2B203F099FE160A7D
:100F1000304603F089FED0B203F086FE304603F07F
:100F200083FED0B203F080FEA88903F089FE40461C
:100F300003F07AFEE0B203F077FE0DE0012B00D162
:100F4000B2B203F07DFE100A03F06EFED0B203F0E1
:100F50006BFEA88903F074FE404603F065FEE0B224
:100F600003F062FE07E0B2B2114603F07FFEA889EB
:100F7000214603F07BFE4FF0D840298920F87E1FE0
:100F8000A0F80290BDE8F083280100202DE9F84385
:100F9000204D1F468046AB88089EA3F5D0400438FC
:100FA00002D1A879012807D0A2EB0800401C85B225
:100FB0000C464FF0D84929E02B880846991A00249E
:100FC000AC713A462A24A3EB08036C812B27491EF7
:100FD0005B1EAF8189B29BB20096FFF7D7FF01205D
:100FE000A8716F81AC81BDE8F8832146404603F0CB
:100FF000E3FC03F031FE0020494603E0A1F88060E5
:10100000401C80B2A842F9D3641CA4B2BC42ECD903
:10101000E9E70000280100202DE9F04FA1B00024ED
:1010200001217A201F9403F085FE0121084603F078
:101030008DFE4FF40040009001208DF804008DF8E3
:10104000064002208DF8050001208DF80700694652
:10105000FE48FFF79BFC4CF23370009002208DF8A5
:1010600004008DF8064003208DF8050001208DF85E
:1010700007006946F648FFF789FC4FF6807000903C
:1010800002208DF804008DF8064003208DF805003D
:101090000120F04D8DF8070069462846FFF776FCE1
:1010A000A814009002208DF804008DF8064003205B
:1010B0008DF805000120E84E8DF80700694630469E
:1010C000FFF764FCA814009002208DF804008DF84E
:1010D000064003208DF805000120E04F8DF8070041
:1010E00069463846FFF752FC0C220021D848FFF72A
:1010F00089FC0C220121D648FFF784FC0C22042134
:10110000D348FFF77FFC0C220521D148FFF77AFC7A
:101110000C220821CE48FFF775FC0C220921CC488F
:10112000FFF770FC0C220A21C948FFF76BFC0C2268
:101130000E21C748FFF766FC0C220F21C448FFF7B9
:1011400061FC0C2207212846FFF75CFC0C220821D9
:101150002846FFF757FC0C2209212846FFF752FCCE
:101160000C220A212846FFF74DFC0C220B212846B1
:10117000FFF748FC0C2211462846FFF743FC0C22DF
:101180000D212846FFF73EFC0C220E212846FFF7D2
:1011900039FC0C220F212846FFF734FC0C221146A3
:1011A0003046FFF72FFC0C2211463846FFF72AFC89
:1011B0000F20CDE911043C20CDE91304159409203A
:1011C0001694CDE917400820CDE919401B941C94D2
:1011D0000620CDE902041D941E941020CDE90440A0
:1011E00006940002CDE90A40089407948000CDE9F6
:1011F0000C40099411A8CDE90E4018A8109002A83F
:10120000FFF760FB01210620FFF74CFB322004F0C2
:101210000BF90121002003F029FD322004F004F92C
:10122000002003F095FA8E4A4FF0204A4FF6FF7BDC
:10123000908049F2413545F2103645F2105441F69E
:10124000631846F60407FF2804D3584502D0B0F5CA
:10125000134F74D1D32003F0F3FC03F06FFA9080A6
:1012600003F06CFA908003F069FA0BEA0020D9468B
:10127000908003F063FA918808439080A8425ED082
:10128000BF2003F0DDFC03F059FA908003F056FA1A
:10129000908003F053FA908003F050FA09EA00209E
:1012A000908003F04BFA918808439080B84246D072
:1012B000D42003F0C5FC03F041FA908003F03EFA1D
:1012C000908003F03BFA09EA0020908003F036FAA0
:1012D000918808439080B04231D04FF45A4003F0D7
:1012E000AFFC03F02BFA90804FF45B4003F0A8FCB6
:1012F00003F024FA09EA002090804FF45C4003F0E8
:101300009FFC03F01BFA918808439080B0F5004FD2
:1013100039D0A04213D0A12003F092FC03F00EFAC2
:10132000908003F00BFA09EA0020908003F006FA9F
:1013300091880843A0F5AE419080613920D080B2F9
:10134000A84205D0B04203D0A04201D040451CD1F4
:10135000DAF81C11504621F00F01CAF81C11DAF816
:101360001C1121F47061CAF81C11DAF81C1141F04B
:101370000301CAF81C11DAF81C1141F4007121E0D4
:10138000A2F80480E4E79480E2E7B84203D0A0F535
:101390004541053918D1DAF81C11504621F00F01EA
:1013A000CAF81C11DAF81C1121F47061CAF81C117A
:1013B000DAF81C1141F00A01CAF81C11DAF81C1104
:1013C00041F44061C0F81C119146918825A0FEF7B8
:1013D000B3FFB9F80400A8427DD1CF2003F030FC60
:1013E000002003F021FCC12003F01EFC302003F09C
:1013F0001BFCED2003F024FC642003F015FC03200B
:1014000003F012FC122003F00FFC812003F00CFC0F
:10141000E82003F015FC852003F006FC102003F003
:1014200003FC7A2003F000FCCB2003F009FC3920F8
:1014300003F0FAFB2C2003F0F7FB002003F0F4FB91
:10144000342003F0F1FB022014E00000000402400D
:10145000000C02400010024000140240001802403C
:1014600028010020204C43442049443A25780D0AA5
:101470000000000003F0D8FBF72003F0E1FB202080
:1014800003F0D2FBEA2003F0DBFB002003F0CCFBEF
:10149000002003F0C9FBC02003F0D2FB1B2003F0A7
:1014A000C3FBC12003F0CCFB012003F0BDFBC52032
:1014B00003F0C6FB302003F0B7FB302003F0B4FB91
:1014C000C72003F0BDFBB72003F0AEFB362003F0CE
:1014D000B7FB482000E0A7E003F0A6FB3A2003F0AA
:1014E000AFFB552003F0A0FBB12003F0A9FB0020C7
:1014F00003F09AFB1A2003F097FBB62003F0A0FB41
:101500000A2003F091FBA22003F08EFBF22003F0EF
:1015100097FB002003F088FB262003F091FB0120BD
:1015200003F082FBE02003F08BFB0F2003F07CFB39
:101530002A2003F079FB282003F076FB082003F033
:1015400073FB0E2003F070FB082003F06DFB5420AA
:1015500003F06AFBA92003F067FB432003F064FB60
:101560000A2003F061FB0F2003F05EFB002003F074
:101570005BFB002003F058FB002003F055FB00202C
:1015800003F052FBE12003F05BFB002003F04CFB77
:10159000152003F049FB172003F046FB072003F05A
:1015A00043FB112003F040FB062003F03DFB2B2002
:1015B00003F03AFB562003F037FB3C2003F034FBEA
:1015C000052003F031FB102003F02EFB0F2003F069
:1015D0002BFB3F2003F028FB3F2003F025FB0F20CF
:1015E00003F022FB2B2003F02BFB002003F01CFB5D
:1015F000002003F019FB012003F016FB3F2003F04D
:1016000013FB2A2003F01CFB002003F00DFB00203D
:1016100003F00AFB002003F007FBEF2003F004FBBC
:10162000112003F00DFBA5E0B8427CD1112003F09E
:1016300007FB142003F0F8FED02003F001FB072085
:1016400003F0F2FA422003F0EFFA1D2003F0ECFA67
:10165000D12003F0F5FA002003F0E6FA1A2003F097
:10166000E3FA092003F0E0FAD22003F0E9FA0120BE
:1016700003F0DAFA222003F0D7FAC02003F0E0FAF0
:10168000102003F0D1FA3B2003F0CEFA002003F043
:10169000CBFA022003F0C8FA112003F0C5FAC520E6
:1016A00003F0CEFA032003F0BFFAC82003F0C8FA13
:1016B000002003F0B9FA252003F0B6FA212003F048
:1016C000B3FA052003F0B0FA002003F0ADFA0A20C7
:1016D00003F0AAFA652003F0A7FA252003F0A4FA84
:1016E000772003F0A1FA502003F09EFA0F2003F0B8
:1016F0009BFA002003F098FAF82003F0A1FA0120E9
:1017000003F092FAFE2003F09BFA002003F08CFA1B
:10171000022003F089FA202003F092FA362003F029
:101720008FFA082000E02BE003F07EFA3A2003F065
:1017300087FA552003F078FA2B2003F081FA002075
:1017400003F072FA002003F06FFA012003F06CFA44
:101750003F2003F069FA2A2003F072FA002003F018
:1017600063FA002003F060FA012003F05DFADF2045
:1017700003F05AFA782003F057FE292001F0FBBE4F
:10178000B0427CD1ED2003F05BFA012003F04CFA6B
:10179000FE2003F049FAEE2003F052FADE2003F0B7
:1017A00043FA212003F040FAF12003F049FA012026
:1017B00003F03AFADF2003F043FA102003F034FA82
:1017C000C42003F03DFA8F2003F02EFAC62003F068
:1017D00037FA002003F028FAE22003F025FAE2208D
:1017E00003F022FAE22003F01FFABF2003F028FAE8
:1017F000AA2003F019FAB02003F022FA0D2003F01A
:1018000013FA002003F010FA0D2003F00DFA002067
:1018100003F00AFA112003F007FA002003F004FA9B
:10182000192003F001FA002003F0FEF9212003F053
:10183000FBF9002003F0F8F92D2003F0F5F9002062
:1018400003F0F2F93D2003F0EFF9002003F0ECF98A
:101850005D2003F0E9F9002003F0E6F95D2003F0D4
:10186000E3F9002003F0E0F9B12003F0E9F980206A
:1018700003F0DAF9002003F0D7F98B2000E0FCE355
:1018800003F0D2F9002003F0CFF9962003F0CCF951
:10189000002003F0C9F9B22003F0D2F9002003F0D0
:1018A000C3F9002003F0C0F9022003F0BDF90020C5
:1018B00003F0BAF9032003F0B7F9002003F0B4F9FC
:1018C000B32003F0BDF9002003F0AEF9002003F0CF
:1018D000ABF9002003F0A8F9002003F0A5F90020DF
:1018E00003F0A2F9002003F09FF9002003F09CF917
:1018F000002003F099F9002003F096F9002003F08E
:1019000093F9002003F090F9002003F08DF90020F6
:1019100003F08AF9002003F087F9002003F084F92E
:10192000002003F081F9002003F07EF9002003F08D
:101930007BF9002003F078F9002003F075F900200E
:1019400003F072F9002003F06FF9002003F06CF946
:10195000002003F069F9B42003F072F98B2003F042
:1019600063F9002003F060F9962003F05DF9002090
:1019700003F05AF9A12003F057F9002003F054F9BD
:10198000B52003F05DF9022003F04EF9002003F0CA
:101990004BF9032003F048F9002003F045F9042037
:1019A00003F042F9002003F03FF9B62003F048F9B4
:1019B000002003F039F9002003F036F9B72003F0D6
:1019C0003FF9002003F030F9002003F02DF93F200B
:1019D00003F02AF9002003F027F95E2003F024F930
:1019E000002003F021F9642003F01EF9002003F029
:1019F0001BF98C2003F018F9002003F015F9AC2036
:101A000003F012F9002003F00FF9DC2003F00CF9C9
:101A1000002003F009F9702003F006F9002003F01C
:101A200003F9902003F000F9002003F0FDF8EB200B
:101A300003F0FAF8002003F0F7F8DC2003F0F4F8E4
:101A4000002003F0F1F8B82003F0FAF8002003F0CA
:101A5000EBF8002003F0E8F8002003F0E5F80020A0
:101A600003F0E2F8002003F0DFF8002003F0DCF8D8
:101A7000002003F0D9F8002003F0D6F8BA2003F0D4
:101A8000DFF8242003F0D0F8002003F0CDF8002088
:101A900003F0CAF8002003F0C7F8C12003F0D0F823
:101AA000202003F0C1F8002003F0BEF8542003F01A
:101AB000BBF8002003F0B8F8FF2003F0B5F80020D1
:101AC00003F0B2F8C22003F0BBF80A2003F0ACF830
:101AD000002003F0A9F8042003F0A6F8002003F08A
:101AE000A3F8C32003F0ACF83C2003F09DF80020DD
:101AF00003F09AF83A2003F097F8002003F094F8E6
:101B0000392003F091F8002003F08EF8372003F01D
:101B10008BF8002003F088F83C2003F085F80020C3
:101B200003F082F8362003F07FF8002003F07CF801
:101B3000322003F079F8002003F076F82F2003F02C
:101B400073F8002003F070F82C2003F06DF80020EB
:101B500003F06AF8292003F067F8002003F064F826
:101B6000262003F061F8002003F05EF8242003F043
:101B70005BF8002003F058F8242003F055F800200B
:101B800003F052F8232003F04FF8002003F04CF844
:101B90003C2003F049F8002003F046F8362003F01B
:101BA00043F8002003F040F8322003F03DF8002015
:101BB00003F03AF82F2003F037F8002003F034F850
:101BC0002C2003F031F8002003F02EF8292003F038
:101BD0002BF8002003F028F8262003F025F8002039
:101BE00003F022F8242003F01FF8002003F01CF873
:101BF000242003F019F8002003F016F8232003F046
:101C000013F8002003F010F8C42003F019F8622044
:101C100003F00AF8002003F007F8052003F004F8A9
:101C2000002003F001F8842002F0FEFF002002F003
:101C3000FBFFF02002F0F8FF002002F0F5FF182073
:101C400002F0F2FF002002F0EFFFA42002F0ECFF10
:101C5000002002F0E9FF182002F0E6FF002002F069
:101C6000E3FF502002F0E0FF002002F0DDFF0C2037
:101C700002F0DAFF002002F0D7FF172002F0D4FFB5
:101C8000002002F0D1FF952002F0CEFF002002F0EC
:101C9000CBFFF32002F0C8FF002002F0C5FFE620D2
:101CA00002F0C2FF002002F0BFFFC52002F0C8FF13
:101CB000322002F0B9FF002002F0B6FF442002F00B
:101CC000B3FF002002F0B0FF652002F0ADFF00205E
:101CD00002F0AAFF762002F0A7FF002002F0A4FF86
:101CE000882002F0A1FF002002F09EFFC62002F033
:101CF000A7FF202002F098FF002002F095FF172098
:101D000002F092FF002002F08FFF012002F08CFF12
:101D1000002002F089FFC72002F092FF002002F0AD
:101D200083FF002002F080FF002002F07DFF0020F2
:101D300002F07AFFC82002F083FF002002F074FF57
:101D4000002002F071FF002002F06EFF002002F080
:101D50006BFFC92002F074FF002002F065FF002035
:101D600002F062FF002002F05FFF002002F05CFF43
:101D7000002002F059FF002002F056FF002002F080
:101D800053FF002002F050FF002002F04DFF002022
:101D900002F04AFF002002F047FF002002F044FF5B
:101DA000002002F041FF002002F03EFF002002F080
:101DB0003BFF002002F038FFE02002F041FF162038
:101DC00002F032FF002002F02FFF1C2002F02CFF57
:101DD000002002F029FF212002F026FF002002F05F
:101DE00023FF362002F020FF002002F01DFF4620D6
:101DF00002F01AFF002002F017FF522002F014FF39
:101E0000002002F011FF642002F00EFF002002F01B
:101E10000BFF7A2002F008FF002002F005FF8B2064
:101E200002F002FF002002F0FFFE992002F0FCFE0B
:101E3000002002F0F9FEA82002F0F6FE002002F0D9
:101E4000F3FEB92002F0F0FE002002F0EDFEC42007
:101E500002F0EAFE002002F0E7FECA2002F0E4FEF3
:101E6000002002F0E1FED22002F0DEFE002002F0AF
:101E7000DBFED92002F0D8FE002002F0D5FEE020E3
:101E800002F0D2FE002002F0CFFEF32002F0CCFEE2
:101E9000002002F0C9FEE12002F0D2FE162002F07E
:101EA000C3FE002002F0C0FE1C2002F0BDFE002098
:101EB00002F0BAFE222002F0B7FE002002F0B4FECB
:101EC000362002F0B1FE002002F0AEFE452002F006
:101ED000ABFE002002F0A8FE522002F0A5FE00207A
:101EE00002F0A2FE642002F09FFE002002F09CFEA1
:101EF0007A2002F099FE002002F096FE8B2002F07C
:101F000093FE002002F090FE992002F08DFE00204A
:101F100002F08AFEA82002F087FE002002F084FE74
:101F2000B92002F081FE002002F07EFEC42002F003
:101F30007BFE002002F078FECA2002F075FE002031
:101F400002F072FED22002F06FFE002002F06CFE62
:101F5000D82002F069FE002002F066FEE02002F0C8
:101F600063FE002002F060FEF32002F05DFE002020
:101F700002F05AFEE22002F063FE052002F054FE59
:101F8000002002F051FE0B2002F04EFE002002F075
:101F90004BFE1B2002F048FE002002F045FE3420DC
:101FA00002F042FE002002F03FFE442002F03CFE20
:101FB000002002F039FE4F2002F036FE002002F031
:101FC00033FE612002F030FE002002F02DFE792069
:101FD00002F02AFE002002F027FE882002F024FEF4
:101FE000002002F021FE972002F01EFE002002F0E9
:101FF0001BFEA62002F018FE002002F015FEB720FE
:1020000002F012FE002002F00FFEC22002F00CFED1
:10201000002002F009FEC72002F006FE002002F0B8
:1020200003FED12002F000FE002002F0FDFDD620CC
:1020300002F0FAFD002002F0F7FDDD2002F0F4FDD1
:10204000002002F0F1FDF32002F0EEFD002002F08E
:10205000EBFDE32002F0F4FD052002F0E5FD002099
:1020600002F0E2FD0A2002F0DFFD002002F0DCFDBC
:102070001C2002F0D9FD002000E0FDE202F0D4FDBA
:10208000332002F0D1FD002002F0CEFD442002F00A
:10209000CBFD002002F0C8FD502002F0C5FD00205D
:1020A00002F0C2FD622002F0BFFD002002F0BCFD84
:1020B000782002F0B9FD002002F0B6FD882002F081
:1020C000B3FD002002F0B0FD972002F0ADFD00202E
:1020D00002F0AAFDA62002F0A7FD002002F0A4FD58
:1020E000B72002F0A1FD002002F09EFDC22002F008
:1020F0009BFD002002F098FDC72002F095FD002016
:1021000002F092FDD12002F08FFD002002F08CFD44
:10211000D52002F089FD002002F086FDDD2002F0CE
:1021200083FD002002F080FDF32002F07DFD002001
:1021300002F07AFDE42002F083FD012002F074FD3C
:10214000002002F071FD012002F06EFD002002F07F
:102150006BFD022002F068FD002002F065FD2A20E0
:1021600002F062FD002002F05FFD3C2002F05CFD09
:10217000002002F059FD4B2002F056FD002002F035
:1021800053FD5D2002F050FD002002F04DFD742053
:1021900002F04AFD002002F047FD842002F044FDD9
:1021A000002002F041FD932002F03EFD002002F0ED
:1021B0003BFDA22002F038FD002002F035FDB320E7
:1021C00002F032FD002002F02FFDBE2002F02CFDB7
:1021D000002002F029FDC42002F026FD002002F0BC
:1021E00023FDCD2002F020FD002002F01DFDD320B4
:1021F00002F01AFD002002F017FDDD2002F014FDB0
:10220000002002F011FDF32002F00EFD002002F08C
:102210000BFDE52002F014FD002002F005FD00207A
:1022200002F002FD002002F0FFFC002002F0FCFCA6
:10223000022002F0F9FC002002F0F6FC292002F056
:10224000F3FC002002F0F0FC3C2002F0EDFC00204A
:1022500002F0EAFC4B2002F0E7FC002002F0E4FC74
:102260005D2002F0E1FC002002F0DEFC742002F0B0
:10227000DBFC002002F0D8FC842002F0D5FC00201A
:1022800002F0D2FC932002F0CFFC002002F0CCFC44
:10229000A22002F0C9FC002002F0C6FCB32002F02C
:1022A000C3FC002002F0C0FCBE2002F0BDFC0020F8
:1022B00002F0BAFCC42002F0B7FC002002F0B4FC2B
:1022C000CD2002F0B1FC002002F0AEFCD32002F0E1
:1022D000ABFC002002F0A8FCDC2002F0A5FC0020F2
:1022E00002F0A2FCF32002F09FFC002002F09CFC14
:1022F000E62002F0A5FC112002F096FC002002F07E
:1023000093FC342002F090FC002002F08DFC56205B
:1023100002F08AFC002002F087FC762002F084FCA8
:10232000002002F081FC772002F07EFC002002F009
:102330007BFC662002F078FC002002F075FC88200F
:1023400002F072FC002002F06FFC992002F06CFC9D
:10235000002002F069FCBB2002F066FC002002F0C5
:1023600063FC992002F060FC002002F05DFC662016
:1023700002F05AFC002002F057FC552002F054FCF9
:10238000002002F051FC552002F04EFC002002F02B
:102390004BFC452002F048FC002002F045FC4320A5
:1023A00002F042FC002002F03FFC442002F03CFC22
:1023B000002002F039FCE72002F042FC322002F05B
:1023C00033FC002002F030FC552002F02DFC0020F0
:1023D00002F02AFC762002F027FC002002F024FC08
:1023E000662002F021FC002002F01EFC672002F0B3
:1023F0001BFC002002F018FC672002F015FC0020F6
:1024000002F012FC872002F00FFC002002F00CFC0E
:10241000992002F009FC002002F006FCBB2002F02B
:1024200003FC002002F000FC992002F0FDFB0020DC
:1024300002F0FAFB772002F0F7FB002002F0F4FB39
:10244000442002F0F1FB002002F0EEFB562002F0E7
:10245000EBFB002002F0E8FB232002F0E5FB00206C
:1024600002F0E2FB332002F0DFFB002002F0DCFB95
:10247000452002F0D9FB002002F0D6FBE82002F054
:10248000DFFB002002F0D0FB002002F0CDFB992002
:1024900002F0CAFB002002F0C7FB872002F0C4FB59
:1024A000002002F0C1FB882002F0BEFB002002F0F9
:1024B000BBFB772002F0B8FB002002F0B5FB6620E2
:1024C00002F0B2FB002002F0AFFB882002F0ACFB70
:1024D000002002F0A9FBAA2002F0A6FB002002F0D7
:1024E000A3FBBB2002F0A0FB002002F09DFB992083
:1024F00002F09AFB002002F097FB662002F094FBAA
:10250000002002F091FB552002F08EFB002002F02B
:102510008BFB552002F088FB002002F085FB442055
:1025200002F082FB002002F07FFB442002F07CFBE3
:10253000002002F079FB552002F076FB002002F02B
:1025400073FBE92002F07CFBAA2002F06DFB002067
:1025500002F06AFB002002F067FB002002F064FB3F
:10256000002002F06DFBAA2002F05EFBCF2002F0FB
:1025700067FB002002F058FB002002F055FB002012
:1025800002F052FB002002F04FFB002002F04CFB57
:10259000002002F049FB002002F046FB002002F080
:1025A00043FB002002F040FB002002F03DFB002036
:1025B00002F03AFB002002F037FB002002F034FB6F
:1025C000002002F031FB002002F02EFB002002F080
:1025D0002BFB002002F028FBF02002F031FB002052
:1025E00002F022FB502002F01FFB002002F01CFB37
:1025F000002002F019FB002002F016FBF32002F08D
:102600001FFB002002F010FBF92002F019FB06204E
:1026100002F00AFB102002F007FB292002F004FB65
:10262000002002F001FB3A2002F00AFB552002F0E4
:10263000FBFA112002F004FB642002F0F5FE2920D1
:1026400002F0FEFA352002F0FBFA002002F0ECFA6C
:10265000512002F0F5FAFF2002F0E6FA532002F0D2
:10266000EFFA2C2002F0E0FA552002F0E9FA82207D
:1026700002F0DAFA2C20FCE3A0427DD14FF4704343
:102680005521184602F0F2FA4FF20104AA21204621
:1026900002F0ECFA651C5221284602F0E7FAA61C6B
:1026A0000821304602F0E2FAE71C0121384602F028
:1026B000DDFA0D214FF4304002F0D8FA0D214BF233
:1026C000010002F0D3FA0D214BF2020002F0CEFA23
:1026D0004FF436483421404602F0C8FA34214BF218
:1026E000016002F0C3FA34214BF2026002F0BEFA3C
:1026F0004FF431490D21484602F0B8FA4BF2011A65
:102700000D21504602F0B2FA0D214BF2021002F0F8
:10271000ADFA34214FF4374002F0A8FA34214BF2DD
:10272000017002F0A3FA34214BF2027002F09EFA1B
:1027300000214FF4324002F099FA00214BF20120BF
:1027400002F094FA00214BF2022002F08FFA2421C9
:102750004FF4384002F08AFA24214BF6010002F0CF
:1027600085FA24214BF6020002F080FA01214FF491
:102770003F4002F07BFA00E0FEE30F214FF43340CC
:1027800002F074FA0F214BF2013002F06FFA0F21C0
:102790004BF2023002F06AFA34214FF4394002F071
:1027A00065FA34214BF6011002F060FA34214BF641
:1027B000021002F05BFA08214FF4354002F056FA9D
:1027C00008214BF2015002F051FA08214BF202505D
:1027D00002F04CFA03214FF4424002F047FA242160
:1027E0004FF43A4002F042FA24214BF6012002F065
:1027F0003DFA24214BF6022002F038FA00214FF472
:102800003C4002F033FA78214BF6014002F02EFAF8
:1028100000214BF6024002F029FA00214FF43D401E
:1028200002F024FA78214BF6015002F01FFA002141
:102830004BF6025002F01AFA00214FF43E4002F02B
:1028400015FA64214BF6016002F010FA00214FF4F2
:10285000514002F00BFA33214DF2011002F006FA5A
:1028600000214DF2021002F001FA34214DF2031062
:1028700002F0FCF900214DF2041002F0F7F93A21C0
:102880004DF2051002F0F2F900214DF2061002F0AF
:10289000EDF94A214DF2071002F0E8F900214DF25E
:1028A000081002F0E3F95C214DF2091002F0DEF9A4
:1028B00000214DF20A1002F0D9F981214DF20B10DE
:1028C00002F0D4F900214DF20C1002F0CFF9A6214C
:1028D0004DF20D1002F0CAF900214DF20E1002F077
:1028E000C5F9E5214DF20F1002F0C0F901214DF2BA
:1028F000101002F0BBF913214DF2111002F0B6F9DD
:1029000001214DF2121002F0B1F954214DF21310D1
:1029100002F0ACF901214DF2141002F0A7F9822166
:102920004DF2151002F0A2F901214DF2161002F03D
:102930009DF9CA214DF2171002F098F902214DF2CB
:10294000181002F093F900214DF2191002F08EF9DF
:1029500002214DF21A1002F089F901214DF21B10EB
:1029600002F084F902214DF21C1002F07FF93421AB
:102970004DF21D1002F07AF902214DF21E1002F004
:1029800075F967214DF21F1002F070F902214DF226
:10299000201002F06BF984214DF2211002F066F94B
:1029A00002214DF2221002F061F9A4214DF2231010
:1029B00002F05CF902214DF2241002F057F9B72120
:1029C0004DF2251002F052F902214DF2261002F0CC
:1029D0004DF9CF214DF2271002F048F902214DF2B6
:1029E000281002F043F9DE214DF2291002F03EF9E1
:1029F00002214DF22A1002F039F9F2214DF22B108A
:102A000002F034F902214DF22C1002F02FF9FE21D0
:102A10004DF22D1002F02AF903214DF22E1002F092
:102A200025F910214DF22F1002F020F903214DF26B
:102A3000301002F01BF933214DF2311002F016F97B
:102A400003214DF2321002F011F96D214DF23310D5
:102A500002F00CF900214FF4524002F007F9332143
:102A60004DF2012002F002F900214DF2022002F0A5
:102A7000FDF834214DF2032002F0F8F800214DF268
:102A8000042002F0F3F83A214DF2052002F0EEF8AE
:102A900000214DF2062002F0E9F84A214DF207200C
:102AA00002F0E4F800214DF2082002F0DFF85C218A
:102AB0004DF2092002F0DAF800214DF20A2002F06E
:102AC000D5F881214DF20B2002F0D0F800214DF213
:102AD0000C2002F0CBF8A6214DF20D2002F0C6F832
:102AE00000214DF20E2002F0C1F8E5214DF20F2039
:102AF00002F0BCF801214DF2102002F0B7F81321CA
:102B00004DF2112002F0B2F801214DF2122002F034
:102B1000ADF854214DF2132002F0A8F801214DF236
:102B2000142002F0A3F882214DF2152002F09EF845
:102B300001214DF2162002F099F8CA214DF217201A
:102B400002F094F802214DF2182002F08FF80021D3
:102B50004DF2192002F08AF802214DF21A2002F0FB
:102B600085F801214DF21B2002F080F802214DF280
:102B70001C2002F07BF834214DF21D2002F076F883
:102B800002214DF21E2002F071F867214DF21F2044
:102B900002F06CF802214DF2202002F067F8842147
:102BA0004DF2212002F062F802214DF2222002F0C3
:102BB0005DF8A4214DF2232002F058F802214DF2D5
:102BC000242002F053F8B7214DF2252002F04EF8F0
:102BD00002214DF2262002F049F8CF214DF22720A4
:102BE00002F044F802214DF2282002F03FF8DE21E5
:102BF0004DF2292002F03AF802214DF22A2002F08B
:102C000035F8F2214DF22B2002F030F802214DF27E
:102C10002C2002F02BF8FE214DF22D2002F026F898
:102C200003214DF22E2002F021F810214DF22F2029
:102C300002F01CF803214DF2302002F017F8332186
:102C40004DF2312002F012F803214DF2322002F051
:102C50000DF86D214DF2332002F008F800214FF4F9
:102C6000534002F003F833214DF2013001F0FEFF32
:102C700000214DF2023001F0F9FF34214DF2033012
:102C800001F0F4FF00214DF2043001F0EFFF3A2192
:102C90004DF2053001F0EAFF00214DF2063001F05F
:102CA000E5FF4A214DF2073001F0E0FF00214DF22F
:102CB000083001F0DBFF5C214DF2093001F0D6FF56
:102CC00000214DF20A3001F0D1FF81214DF20B308D
:102CD00001F0CCFF00214DF20C3001F0C7FFA6211E
:102CE0004DF20D3001F0C2FF00214DF20E3001F027
:102CF000BDFFE5214DF20F3001F0B8FF01214DF28B
:102D0000103001F0B3FF13214DF2113001F0AEFF8E
:102D100001214DF2123001F0A9FF54214DF2133080
:102D200001F0A4FF01214DF2143001F09FFF822138
:102D30004DF2153001F09AFF01214DF2163001F0ED
:102D400095FFCA214DF2173001F090FF02214DF29C
:102D5000183001F08BFF00214DF2193001F086FF91
:102D600002214DF21A3001F081FF01214DF21B309A
:102D700001F07CFF02214DF21C3001F077FF34217D
:102D80004DF21D3001F072FF02214DF21E3001F0B4
:102D90006DFF67214DF21F3001F068FF02214DF2F7
:102DA000203001F063FF84214DF2213001F05EFFFD
:102DB00002214DF2223001F059FFA4214DF22330BF
:102DC00001F054FF02214DF2243001F04FFFB721F2
:102DD0004DF2253001F04AFF02214DF2263001F07C
:102DE00045FFCF214DF2273001F040FF02214DF287
:102DF000283001F03BFFDE214DF2293001F036FF93
:102E000002214DF22A3001F031FFF2214DF22B3038
:102E100001F02CFF02214DF22C3001F027FFFE21A2
:102E20004DF22D3001F022FF03214DF22E3001F042
:102E30001DFF10214DF22F3001F018FF03214DF23C
:102E4000303001F013FF33214DF2313001F00EFF2D
:102E500003214DF2323001F009FF6D214DF2333084
:102E600001F004FF00214FF4544001F0FFFE332134
:102E700000E080E34DF2014001F0F8FE00214DF248
:102E8000024001F0F3FE34214DF2034001F0EEFE6A
:102E900000214DF2044001F0E9FE3A214DF20540D7
:102EA00001F0E4FE00214DF2064001F0DFFE4A2170
:102EB0004DF2074001F0DAFE00214DF2084001F02A
:102EC000D5FE5C214DF2094001F0D0FE00214DF20B
:102ED0000A4001F0CBFE81214DF20B4001F0C6FE0D
:102EE00000214DF20C4001F0C1FEA6214DF20D4033
:102EF00001F0BCFE00214DF20E4001F0B7FEE521CD
:102F00004DF20F4001F0B2FE01214DF2104001F0F0
:102F1000ADFE13214DF2114001F0A8FE01214DF24A
:102F2000124001F0A3FE54214DF2134001F09EFE29
:102F300001214DF2144001F099FE82214DF215401D
:102F400001F094FE01214DF2164001F08FFECA21DE
:102F50004DF2174001F08AFE02214DF2184001F0B7
:102F600085FE00214DF2194001F080FE02214DF254
:102F70001A4001F07BFE00E000E301214DF21B400E
:102F800001F074FE02214DF21C4001F06FFE34216D
:102F90004DF21D4001F06AFE02214DF21E4001F08B
:102FA00065FE67214DF21F4001F060FE02214DF2E7
:102FB000204001F05BFE84214DF2214001F056FEDD
:102FC00002214DF2224001F051FEA4214DF2234096
:102FD00001F04CFE02214DF2244001F047FEB721E2
:102FE0004DF2254001F042FE02214DF2264001F053
:102FF0003DFECF214DF2274001F038FE02214DF277
:10300000284001F033FEDE214DF2294001F02EFE72
:1030100002214DF22A4001F029FEF2214DF22B400F
:1030200001F024FE02214DF22C4001F01FFEFE2192
:103030004DF22D4001F01AFE03214DF22E4001F019
:1030400015FE10214DF22F4001F010FE03214DF22C
:10305000304001F00BFE33214DF2314001F006FE0D
:1030600003214DF2324001F001FE6D214DF233405B
:1030700001F0FCFD00214FF4554001F0F7FD332134
:103080004DF2015001F0F2FD00214DF2025001F02D
:10309000EDFD34214DF2035001F0E8FD00214DF229
:1030A000045001F0E3FD3A214DF2055001F0DEFD40
:1030B00000214DF2065001F0D9FD4A214DF2075092
:1030C00001F0D4FD00214DF2085001F0CFFD5C214C
:1030D0004DF2095001F0CAFD00214DF20A5001F0F5
:1030E000C5FD81214DF20B5001F0C0FD00214DF2D4
:1030F0000C5001F0BBFDA6214DF20D5001F0B6FDC4
:1031000000214DF20E5001F0B1FDE5214DF20F50BE
:1031100001F0ACFD01214DF2105001F0A7FD13218B
:103120004DF2115001F0A2FD01214DF2125001F0BB
:103130009DFD54214DF2135001F098FD01214DF2F7
:10314000145001F093FD82214DF2155001F08EFDD7
:1031500001214DF2165001F089FDCA214DF21750A0
:1031600001F084FD02214DF2185001F07FFD002195
:103170004DF2195001F07AFD02214DF21A5001F082
:1031800075FD01214DF21B5001F070FD02214DF241
:103190001C5001F06BFD34214DF21D5001F066FD15
:1031A00002214DF21E5001F061FD67214DF21F50CA
:1031B00001F05CFD02214DF2205001F057FD842109
:1031C0004DF2215001F052FD02214DF2225001F04A
:1031D0004DFDA4214DF2235001F048FD02214DF296
:1031E000245001F043FDB7214DF2255001F03EFD82
:1031F00002214DF2265001F039FDCF214DF227502A
:1032000001F034FD02214DF2285001F02FFDDE21A6
:103210004DF2295001F02AFD02214DF22A5001F011
:1032200025FDF2214DF22B5001F020FD02214DF23F
:103230002C5001F01BFDFE214DF22D5001F016FD2A
:1032400003214DF22E5001F011FD10214DF22F50AF
:1032500001F00CFD03214DF2305001F007FD332148
:103260004DF2315001F002FD03214DF2325001F0D8
:10327000FDFC6D214DF2335001F0F8FC00214FF4BC
:10328000564001F0F3FC33214DF2016001F0EEFCF9
:1032900000214DF2026001F0E9FC34214DF203609F
:1032A00001F0E4FC00214DF2046001F0DFFC3A2162
:1032B0004DF2056001F0DAFC00214DF2066001F0EC
:1032C000D5FC4A214DF2076001F0D0FC00214DF2FF
:1032D000086001F0CBFC5C214DF2096001F0C6FCF6
:1032E00000214DF20A6001F0C1FC81214DF20B601A
:1032F00001F0BCFC00214DF20C6001F0B7FCA621EE
:103300004DF20D6001F0B2FC00214DF20E6001F0B3
:10331000ADFCE5214DF20F6001F0A8FC01214DF25A
:10332000106001F0A3FC13214DF2116001F09EFC2E
:1033300001214DF2126001F099FC54214DF213600D
:1033400001F094FC01214DF2146001F08FFC822108
:103350004DF2156001F08AFC01214DF2166001F07A
:1033600085FCCA214DF2176001F080FC02214DF26C
:10337000186001F07BFC00214DF2196001F076FC31
:1033800002214DF21A6001F071FC01214DF21B6027
:1033900001F06CFC02214DF21C6001F067FC34214D
:1033A0004DF21D6001F062FC02214DF21E6001F041
:1033B0005DFC67214DF21F6001F058FC02214DF2C7
:1033C000206001F053FC84214DF2216001F04EFC9D
:1033D00002214DF2226001F049FCA4214DF223604C
:1033E00001F044FC02214DF2246001F03FFCB721C2
:1033F0004DF2256001F03AFC02214DF2266001F009
:1034000035FCCF214DF2276001F030FC02214DF256
:10341000286001F02BFCDE214DF2296001F026FC32
:1034200002214DF22A6001F021FCF2214DF22B60C5
:1034300001F01CFC02214DF22C6001F017FCFE2172
:103440004DF22D6001F012FC03214DF22E6001F0CF
:103450000DFC10214DF22F6001F008FC03214DF20C
:10346000306001F003FC33214DF2316001F0FEFBCE
:1034700003214DF2326001F0F9FB6D214DF2336012
:1034800001F0F4FB5521184601F0F0FBAA2120467B
:1034900001F0ECFB5221284601F0E8FB0821304600
:1034A00001F0E4FB0021384601F0E0FBCC21484666
:1034B00001F0DCFB0021504601F0D8FB052140461D
:1034C00001F0D4FB70214FF4374001F0CFFB7021A5
:1034D0004BF2017001F0CAFB01214FF4384001F0BA
:1034E000C5FB03214BF6010001F0C0FB03214BF6A5
:1034F000020001F0BBFB03214BF6030001F0B6FB19
:1035000002214FF43C4001F0B1FB00214BF6014099
:1035100001F0ACFB00214BF6024001F0A7FBD021EB
:103520004FF4494001F0A2FB02214CF6011001F0DA
:103530009DFB50214CF6021001F098FB50214CF6F7
:10354000031001F093FB50214CF6041001F08EFBA8
:1035500000214FF4545001F089FB55214FF468507D
:1035600001F084FB4FF4885001F06AFB782001F0F1
:1035700077FF4FF4245001F063FBFDE0A0F5134109
:103580004FF480744FF4E06940F2022A4FF427466A
:1035900025397CD0A0F5134140F20775283977D042
:1035A000A0F513414FF488774FF41C56203970D0A2
:1035B000A0F5134131396DD0A0F5A84108396AD082
:1035C000A0F5A8514FF44077053965D0A0F53541F5
:1035D00005397CD0A0F54541053979D0A0F58A415F
:1035E000313976D0A0F58A41353973D04045C4D100
:1035F000E22001F025FB1D2001F016FB022001F066
:1036000013FB042001F010FB642001F029FFE020EF
:1036100001F016FB012001F007FB0A2001F004FF76
:10362000E02001F00DFB032001F0FEFA0C2001F078
:10363000FBFE012001F004FB0A2001F0F5FEE6206C
:1036400001F0FEFA2F2001F0EFFAFF2001F0ECFA72
:10365000FF2001F0E9FAB02001F0F2FA202001F099
:10366000E3FA002001F0E0FA032001F0DDFA40F275
:103670001F3001F0D9FA012001F0D6FA40F2DF1034
:1036800001F0D2FA002001F0CFFAB42005E080E08A
:103690004BE103E2AAE27FE3FEE301F0D1FA04206A
:1036A00001F0C2FA40F21F4001F0BEFA002001F022
:1036B000BBFA2E2001F0B8FA002001F0B5FA002084
:1036C00001F0B2FA002001F0AFFA002003E0FDE3C0
:1036D000FDE3FDE3FDE301F0A7FAB62001F0B0FA47
:1036E000022001F0A1FA4FF4037001F09DFA0020CE
:1036F00001F09AFA172001F097FA152001F094FAD8
:10370000002001F091FA002001F08EFAF02001F083
:1037100097FA032001F088FA292001F091FAD020CD
:1037200001F08EFA002001F07FFABE2001F088FA45
:10373000052001F079FAFE2001F076FA012001F06F
:1037400073FA002001F070FA002001F06DFA0020F9
:1037500001F06AFAB82001F073FA032001F064FA6C
:10376000012001F061FABA2001F06AFA012001F0AB
:103770005BFA642000F0F6FF0020FDF76FFAFF49C6
:103780000120C1F8BC025846FDF732FA21B0BDE86D
:10379000F08F47F6F001E52001F068FA214601209C
:1037A00001F064FA4946022001F060FA41F230016A
:1037B000032001F05BFA0021042001F057FA514682
:1037C000082001F053FA0021092001F04FFA0021EE
:1037D0000A2001F04BFA00210C2001F047FA0021E9
:1037E0000D2001F043FA00210F2001F03FFA0021E3
:1037F000102001F03BFA0721112001F037FA0021D7
:10380000122001F033FA0021132001F02FFA0021D9
:10381000072001F02BFA41F29061102001F026FA06
:1038200040F22721112001F021FA9D21122001F000
:103830001DFA4FF4C851132001F018FA2521292050
:1038400001F014FA0D212B2001F010FA072130208D
:1038500001F00CFA40F20331312001F007FA0321A4
:10386000322001F003FA40F20621352001F0FEF982
:103870000821362001F0FAF940F20641372001F024
:10388000F5F94FF44171382001F0F0F907213920A2
:1038900001F0ECF940F202613C2001F0E7F9082167
:1038A0003D2001F0E3F90021502001F0DFF9EF2184
:1038B000512001F0DBF90021522001F0D7F940F24C
:1038C0003F11532001F0D2F93146602001F0CEF9CA
:1038D0000121612001F0CAF900216A2001F0C6F936
:1038E0000021802001F0C2F90021812001F0BEF901
:1038F0000021822001F0BAF90021832001F0B6F9FD
:103900000021842001F0B2F90021852001F0AEF9F8
:103910001021902001F0AAF94FF4C061922001F02B
:10392000A5F940F233110720FEE341F28F01EC20AC
:1039300001F09CF941F23421EF2001F097F9214682
:10394000012001F093F94946022001F08FF941F27C
:103950003001032001F08AF90021042001F086F9EA
:103960005146082001F082F90021092001F07EF97A
:1039700000210A2001F07AF901210C2001F076F9EA
:1039800000210D2001F072F900210F2001F06EF9E5
:103990000021102001F06AF90721112001F066F9D9
:1039A0000021122001F062F90021132001F05EF9DC
:1039B0000121072001F05AF9322001F035FD41F2D2
:1039C0009041102001F052F940F22721112001F01E
:1039D0004DF9322001F028FD8A21122001F046F92C
:1039E000322001F021FD4FF4D051132001F03EF9B7
:1039F0000621292001F03AF90D212B2001F036F99A
:103A0000322001F011FD0021202001F02FF90021CA
:103A1000212001F02BF9322001F006FD0021302099
:103A200001F024F940F20461312001F01FF940F265
:103A30000531322001F01AF90021352001F016F984
:103A400040F60941362001F011F94FF40171372099
:103A500001F00CF940F20131382001F007F9294654
:103A6000392001F003F900213C2001F0FFF840F675
:103A70000A213D2001F0FAF8322001F0D5FC0021A6
:103A8000502001F0F3F8EF21512001F0EFF8002170
:103A9000522001F0EBF840F23F114EE100210846C0
:103AA00001F0E4F82146012001F0E0F84946022047
:103AB00001F0DCF841F23001032001F0D7F80021D9
:103AC000042001F0D3F85146082001F0CFF800217E
:103AD000092001F0CBF800210A2001F0C7F80121EC
:103AE0000C2001F0C3F800210D2001F0BFF80021E7
:103AF0000F2001F0BBF8322001F096FC40F20111DA
:103B0000072001F0B3F8322001F08EFC4FF486510B
:103B1000102001F0ABF80721112001F0A7F8394679
:103B2000122001F0A3F84FF43061132001F09EF849
:103B30000021292001F09AF844F210012B2001F015
:103B400095F80021502001F091F8EF21512001F06B
:103B50008DF80021522001F089F840F23F115320E6
:103B600001F084F83146602001F080F801216120E5
:103B700001F07CF800216A2002E000000080404251
:103B800001F074F80021802001F070F800218120FC
:103B900001F06CF80021822001F068F800218320F8
:103BA00001F064F80021842001F060F800218520F4
:103BB00001F05CF81021902001F058F800219220CB
:103BC00001F054F80121932001F050F83946952076
:103BD00001F04CF80021972001F048F800219820CE
:103BE00001F044F840F27311072081E341F214011F
:103BF000E72001F03BF82146012001F037F84FF4AF
:103C00000071022001F032F841F23801032001F086
:103C10002DF85146082001F029F80021092001F073
:103C200025F800210A2001F021F800210C2001F0E4
:103C30001DF800210D2001F019F800210F2001F0DE
:103C400015F80021102001F011F80721112001F0D2
:103C50000DF80021122001F009F80021132001F0D5
:103C600005F8C82001F0E0FB41F29061102000F05F
:103C7000FDFF40F22721112000F0F8FF322001F073
:103C8000D3FB0C21122000F0F1FF322001F0CCFB1D
:103C90004FF40061132000F0E9FF1121292000F00A
:103CA000E5FF0B212B2000F0E1FF322001F0BCFBEF
:103CB0000021202000F0DAFF40F23F1319462120B6
:103CC00000F0D4FF0021302000F0D0FF4FF48374C7
:103CD0002146312000F0CAFF0021322000F0C6FF4B
:103CE0004FF40171352000F0C1FF41F20A61362026
:103CF00000F0BCFF2946372000F0B8FF21463820ED
:103D000000F0B4FF2946392000F0B0FF40F2024134
:103D10003C2000F0ABFF40F60F413D2000F0A6FF35
:103D20000021502000F0A2FFEF21512000F09EFF63
:103D30000021522000F09AFF1946532000F096FF10
:103D40003146602000F092FF0121612000F08EFFDB
:103D500000216A2000F08AFF0021802000F086FF09
:103D60000021812000F082FF0021822000F07EFFF0
:103D70000021832000F07AFF0021842000F076FFEC
:103D80000021852000F072FF1021902000F06EFFCE
:103D90004FF4C0619220FDE32146012000F066FF50
:103DA0004946022000F062FF41F23001032000F09A
:103DB0005DFF0021042000F059FF40F20721082098
:103DC00000F054FF0021092000F050FF00210A20DC
:103DD00000F04CFF00210C2000F048FF00210D20D6
:103DE00000F044FF00210F2000F040FF142001F0FC
:103DF0001BFB41F2B061102000F038FF01211120BF
:103E000000F034FF0121172000F030FF4FF49C71C7
:103E1000122000F02BFF4FF40061132000F026FF6A
:103E20000921292000F022FF09212A2000F01EFF8D
:103E30000021A42000F01AFF0021502000F016FFFE
:103E4000EF21512000F012FF0021522000F00EFF60
:103E500040F23F11532000F009FF3146602000F08E
:103E600005FF0121612000F001FF00216A2000F020
:103E7000FDFE0021802000F0F9FE0021812000F0ED
:103E8000F5FE0021822000F0F1FE0021832000F0E9
:103E9000EDFE0021842000E021E000F0E7FE00219B
:103EA000852000F0E3FE1321902000F0DFFE0021CA
:103EB000922000F0DBFE0321932000F0D7FE39466C
:103EC000952000F0D3FE40F2731103E014E110E2FC
:103ED000D7E28CE3072000F0C9FE322008E1002180
:103EE000072000F0C3FE322001F09EFA4FF48E71DD
:103EF000122000F0BBFE0121A42000F0B7FE0F212C
:103F0000082000F0B3FE08210A2000F0AFFE0821CF
:103F10000D2000F0ABFE2B462946302000F0A6FE17
:103F20000721312000F0A2FE40F20361322000F0B0
:103F30009DFE4D464946332000F098FE5146342000
:103F400000F094FE0221352000F090FE41F60F7142
:103F5000362000F08BFE1946372000F087FE002146
:103F6000382000F083FE0021392000F07FFE194642
:103F70003A2000F07BFE00213B2000F077FE072175
:103F80003C2000F073FE00213D2000F06FFE322047
:103F900001F04AFA0121072000F068FE01211720F4
:103FA00000F064FE322001F03FFA4FF4BD511020C2
:103FB00000F05CFE40F21721112000F057FE4FF494
:103FC0008F71122000F052FE4FF47061132000F048
:103FD0004DFE00212A2000F049FE0A21292000F090
:103FE00045FE4FF49F71122000F040FE002150204A
:103FF00000F03CFEEF21512000F038FE002152205D
:1040000000F034FE40F23F11532000F02FFE314605
:10401000602000F02BFE0121612000F027FE00212E
:104020006A2000F023FE0021802000F01FFE002106
:10403000812000F01BFE0021822000F017FE0021ED
:10404000832000F013FE0021842000F00FFE0021E9
:10405000852000F00BFE1321902000F007FE39466A
:10406000922000F003FE0521932000F0FFFD0021C7
:10407000952000F0FBFD0021972000F0F7FD0021C6
:10408000982000F0F3FD2146012000F0EFFD2946C5
:10409000022000F0EBFD41F23801032000F0E6FDC4
:1040A0000021042000F0E2FD00210C2000F0DEFDE4
:1040B00000210F2000F0DAFD0021202000F0D6FDC5
:1040C0000021212000F0D2FD2121072000F0CEFDAB
:1040D000142001F0A9F96121072000F0C7FD142088
:1040E00001F0A2F940F27311072000F0BFFD142087
:1040F00001F09AF9FFF740BB0021084600F0B6FD39
:104100000021084600F0B2FD0021084600F0AEFD97
:104110000021084600F0AAFD0121A42000F0A6FD20
:10412000142001F081F900E0DEE03146602000F06B
:104130009DFD55465146082000F098FD4FF405714D
:10414000302000F093FD43F21571312000F08EFD18
:1041500040F20461322000F089FD40F61661332000
:1041600000F084FD42F21121342000F07FFD4FF475
:10417000A851352000F07AFD48F20751362000F0B2
:1041800075FD41F20741372000F070FD41F2034117
:10419000382000F06BFD2021392000F067FD1A2146
:1041A000902000F063FD0021102000F05FFD07214A
:1041B000112000F05BFD0021122000F057FD0021CE
:1041C000132000F053FD142001F02EF94FF4E661A6
:1041D000102000F04BFD40F23711112000F046FD99
:1041E000142001F021F94FF4DC71122000F03EFDA3
:1041F000142001F019F94FF47061132000F036FD1E
:1042000080212A2000F032FD4821292000F02EFDD7
:10421000142001F009F92146012000F027FD49464C
:10422000022000F023FD41F23801032000F01EFDC2
:104230002946082000F01AFD00210A2000F016FD92
:1042400000210C2000F012FD00210D2000F00EFDD9
:1042500030210E2000F00AFD0021502000F006FD64
:10426000EF21512000F002FD0021522000F0FEFC61
:1042700040F23F11532000F0F9FC3146602000F07D
:10428000F5FC0121612000F0F1FC00216A2000F022
:10429000EDFC1121902000F0E9FC4FF4C061922068
:1042A00000F0E4FC40F20241932000F0DFFC022128
:1042B000942000F0DBFC142001F0B6F80121072067
:1042C00000F0D4FC142001F0AFF86121072000F0C9
:1042D000CDFC40F27311072000F0C8FC0021202023
:1042E00000F0C4FC0021212000F0C0FC22210020AD
:1042F0007AE10021084600F0B9FC0021084600F0F0
:10430000B5FC142001F090F80021084600F0AEFC46
:104310000021084600F0AAFC0021084600F0A6FC97
:104320000021084600F0A2FC0121A42000F09EFC20
:10433000142001F079F83146602000F097FC40F637
:104340000601082000F092FC40F203731946302069
:1043500000F08CFC0121312000F088FC0421322087
:1043600000F084FC4FF48171332000F07FFC39466B
:10437000342000F07BFC40F20311352000F076FC85
:104380001F21362000F072FC1946372000F06EFC29
:104390000121382000F06AFC0421392000F066FC7D
:1043A0001521902000F062FC4FF48261102000F093
:1043B0005DFC40F24721112000F058FC4FF4DE7103
:1043C000122000F053FC4FF46061132000F04EFC0B
:1043D000782001F029F82146012000F047FC4FF435
:1043E0000071022000F042FC41F23001032000F095
:1043F0003DFC08210A2000F039FC00210C2000F0CF
:1044000035FC20210E2000F031FC00210F2000F0AF
:104410002DFC0021202000F029FC0021212000F0AB
:1044200025FC3D212A2000F021FC142000F0FCFF97
:104430002D21292000F01AFC0021502000F016FC4C
:104440004DF2EF01512000F011FC0021522000F04C
:104450000DFC40F23F11532000F008FC00216120C8
:1044600000F004FC00216A2000F000FC3946922094
:1044700000F0FCFB0521932000F0F8FB2146FFF73C
:10448000B3BB0121002000F0F1FB0A2000F0CCFFBB
:1044900041F22861102000F0E9FB0E21122000F00B
:1044A000E5FB40F63921132000F0E0FB0A2000F084
:1044B000BBFF4021112000F0D9FB5021152000F056
:1044C000D5FB0A2000F0B0FF1E21122000F0CEFB29
:1044D0000A2000F0A9FF4FF4B151102000F0C6FBF4
:1044E00042F63921132000F0C1FB0A2000F09CFFA6
:1044F0002146012000F0BAFB3946022000F0B6FB4D
:1045000041F23801032000F0B1FB5146082000F0D1
:10451000ADFB08210A2000F0A9FB0021302000F0AB
:10452000A5FB40F20241312000F0A0FB4FF4837163
:10453000322000F09BFB40F20351332000F096FB49
:104540004FF48271342000F091FB40F201313520AC
:1045500000F08CFB2946362000F088FB40F2053144
:10456000372000F083FB4FF40271382000F07EFB0F
:1045700040F60B71392000F079FB0221412000F058
:1045800075FB3146602000F071FB0121612000F0D5
:104590006DFB00E0CDE04FF40471902000F066FB6D
:1045A0004FF48571922000F061FB0421932000F00C
:1045B0005DFB2146A02000F059FB0121072000F0FF
:1045C00055FB2121072000F051FB2321072000F09B
:1045D0004DFB3321072000F049FB40F23311072047
:1045E00000F044FB0021A02000F040FB82E53021D8
:1045F000152000F03BFB10219A2000F037FB202112
:10460000112000F033FB43F22841102000F02EFB74
:104610000221122000F02AFB41F23801132000F0A1
:1046200025FB282000F000FF1221084600F01EFBA9
:10463000282000F0F9FE43F22041102000F016FB84
:1046400043F23801132000F011FB462000F0ECFE8D
:104650000021302000F00AFB40F20241312000F03E
:1046600005FB40F20731322000F000FB4FF44171AE
:10467000332000F0FBFA0421342000F0F7FA40F276
:104680000141352000F0F2FA2946362000F0EEFA1A
:1046900040F20531372000F0E9FA4FF4C2631946C1
:1046A000382000F0E3FA1946392000F0DFFA2146FD
:1046B000012000F0DBFA3946022000F0D7FA41F27F
:1046C0003001032000F0D2FA40F60801082000F083
:1046D000CDFA08210A2000F0C9FA3146602000F026
:1046E000C5FA0121612000F0C1FA4FF49F719020BA
:1046F00000F0BCFA2146922000F0B8FA214693203F
:1047000000F0B4FA4FF44051A02000F0AFFA1021AD
:10471000A32000F0ABFA0121072000F0A7FA212125
:10472000072000F0A3FA2321072000F09FFA33218D
:10473000072000F09BFA40F23311A0E608B54FF0D5
:10474000D840B0F88000ADF80000BDF8000008BD0A
:1047500010B500F075FA052000F082FEBDE81040AB
:10476000FFF7ECBF10B50246BE2000F069FA052045
:1047700000F05AFA104603F074F89FED0C1B53EC4E
:10478000112B03F081F803F03FF880B200F04CFAEF
:10479000012000F049FAFF2000F046FA002000F066
:1047A00043FABDE81040002000F03EBA6666666637
:1047B00066660440F0B57F4D00232946AA798988B2
:1047C00046F6040741F66314012A01D02AB11DE020
:1047D000B9421BD0A14202D118E0A14216D108284B
:1047E00014D2DFE800F00406080A0C0E10120620AE
:1047F0000CE007200AE0042008E0052006E0012084
:1048000004E0002002E0032000E00220A1F5134CA8
:1048100045F2103245F21056BCF1410C07D0B942B6
:1048200005D0914203D0B14201D0A1427BD10828EA
:1048300012D2DFE800F0110406080A0C0E108023E3
:104840000AE0402308E0C02306E0202304E06023C0
:1048500002E0A02300E0E023B14202D14FF458501F
:1048600000E03620914205D0B14203D0A14201D0F0
:1048700043F00803B94201D143F00203194600F0A6
:10488000F5F9AA88A2420AD098062888698802D534
:10489000884202D303E0884201D929806880688970
:1048A000B24241D100F0CCF9002000F0BDF9688996
:1048B000401C80B200F0C4F9002000F0B5F968890E
:1048C000801C80B200F0BCF92888401EC0F30F2085
:1048D00000F0AAF96889C01C80B200F0B1F928780C
:1048E000401EC0B200F0A0F9A88900F0A9F900208C
:1048F00000F09AF9A889401C80B200F0A1F90020CC
:1049000000F092F9A889801C80B200F099F96888BB
:10491000401EC0F30F2000F087F9A889C01C80B2A8
:1049200000F08EF922E028E000F08AF9002000F083
:104930007BF9002000F078F92888401EC0F30F2092
:1049400000F072F92878401EC0B200F06DF9A88915
:1049500000F076F9002000F067F9002000F064F91B
:104960006888401EC0F30F2000F05EF9A878BDE80B
:10497000F040401EC0B200F057B9082812D2DFE85C
:1049800000F0040608110A0C0E1030230AE0102370
:1049900008E0202306E0382304E0282302E018235F
:1049A00000E00823BDE8F040032043F4805100F00C
:1049B0005DB90000280100202DE9F043DFF84481B3
:1049C0000C460246050AB8F804104046A1F5134308
:1049D00040894FEA1429413B17D0A1F5A643103B6B
:1049E00013D04646A1F5D047B3793688B61A761E5D
:1049F000043F0ED0A1F5C857633F1ED0A1F5AA47CA
:104A0000103F57D0012B72D072E000F019F9284600
:104A100005E0012B00D1B2B200F012F9100A00F04B
:104A200003F9D0B200F000F9B8F80C0000F008F972
:104A3000484600F0F9F8E0B22AE06BB300F000F964
:104A4000284600F0F1F8D0B200F0EEF8B8F8000017
:104A5000401EC0F30F2000F0E7F898F80000401E59
:104A6000C0B200F0E1F8B8F80C0000F0E9F84846F0
:104A700000F0DAF8E0B200F0D7F8B8F80200401E13
:104A8000C0F30F2000F0D0F898F80200401EC0B22A
:104A9000BDE8F04300F0C8B8B2B200F0D1F8002091
:104AA00000F0C2F8002000F0BFF8100A00F0BCF8D7
:104AB000D0B2D6E700F0C4F8284600F0B5F8B8F850
:104AC0000A00401C80B200F0BBF8D0B200F0ACF895
:104AD000B8F80C0000F0B4F8484600F0A5F8B8F8B3
:104AE0000C00401C80B200F0ABF8A4E7FFE7B2B2C4
:104AF000114600F0BBF8B8F80C002146BDE8F043C1
:104B000000F0B4B8280100202DE9F84F82461F4676
:104B10000C468B46580700D0012000EBD7007908DF
:104B200010FB01F0203AC0B202F0FF09002600900D
:104B300041E00C2F10D0102F12D0182F3ED1204959
:104B400009EBC90001EB80004FF00008855D2806E5
:104B50000AD51C4802880BE009EB49001A49F1E725
:104B60001A4901EB0910EFE70A9828B9154842885D
:104B700021465046FCF782F96806050E1448641C6D
:104B8000A4B24088A04219D9A4EB0B00B84209D1C5
:104B90000AF101001FFA80FA0D485C460188514570
:104BA0000CD906E008F1010000F0FF08B8F1080F89
:104BB000CDD3761CF6B200988642BAD3BDE8F88F02
:104BC000F2840008680000208E7A0008027F000846
:104BD000280100202DE9F84F044600F0FF081019C5
:104BE0000D46DDE90A761FFA80FA58191FFA80F996
:104BF0004FF0000B11E0544502D3E819444685B24A
:104C00004D450FD23B4629462046CDF800B0FFF770
:104C10007BFF04EB570084B2761C3278A2F12000AF
:104C20005E28E8D9BDE8F88F01B5BDF80000ADF801
:104C30000000BDF800004FF0D841A1F8800008BD89
:104C400001B5BDF80000ADF80000BDF800004FF060
:104C5000D841A1F87E0008BD03484FF0D841008933
:104C6000A1F87E0070470000280100204FF0D842D4
:104C700022F87E0F518070477CB50121202000F082
:104C800059F801208DF8040000228DF80620032138
:104C90008DF80510074D4FF4C0648DF8070000949F
:104CA00069462846FBF772FE21462846FBF7C3FEFD
:104CB0007CBD000000140240FEE7704730B50F23B2
:104CC000C27801780125FAB1144A126801F1E02195
:104CD00002F4E062C2F5E062C2F30722C2F104040A
:104CE000D3404278A24084781C401443220181F8CA
:104CF0000024007800F01F018D404009800000F181
:104D0000E020C0F8005130BD01F01F008540480987
:104D1000800000F1E020C0F8805130BD0CED00E0D3
:104D20000249084302490860704700000000FA0584
:104D30000CED00E0044A0029116801D0014300E0B5
:104D4000814311607047000030380240044A002956
:104D5000116801D0014300E08143116070470000F9
:104D600038380240044A0029116801D0014300E0AC
:104D7000814311607047000040380240044A002916
:104D8000116801D0014300E08143116070470000C9
:104D90004438024070B5204B1968204C11F00C01CA
:104DA00004D06610042903D0082903D004601BE056
:104DB000066019E0184A121F1168C1F38055116886
:104DC00001F03F0115B1B6FBF1F101E0B4FBF1F1E7
:104DD00014681268C4F388146143C2F30142521C80
:104DE0005200B1FBF2F1016019680F2202EA1111C1
:104DF0000B4A545C0168E14041601C68072505EAE4
:104E00009424145D21FA04F484601B6805EA53338A
:104E1000D25CD140C16070BD083802400024F4006B
:104E2000780000200CB50022274900920192086802
:104E300040F4803008604FF4A043086800F400306C
:104E400001900098401C0090019810B90098984279
:104E5000F3D10868800334D5012001901A4840300E
:104E6000026842F0805202601848026842F44042F0
:104E700002601548083002680260026842F400428D
:104E80000260026842F4A0520260031F104A1A60D6
:104E90000A6842F080720A600A689201FCD50D49E6
:104EA00040F205720A60016821F0030101600168A7
:104EB00041F0020101600168C1F381010229FAD1C8
:104EC0000CBD01920CBD0000003802400070004093
:104ED00008544007003C02404FF0E02104280869D4
:104EE00003D020F004000861704740F00400FAE7A6
:104EF00010B502F02DFA012803D0BDE8104001F0F2
:104F0000C1BE10BD124810B5016841F470010160C6
:104F10001048016841F0010101600E4A0021083289
:104F2000116002680C4B1A400260031D0B4A1A60A4
:104F3000026822F48022026006480C300160FFF70C
:104F400071FF03494FF000608039086010BD000018
:104F500088ED00E000380240FFFFF6FE103000242C
:104F6000F8B50020184D00900121284600F0B5F852
:104F7000012823D13221002000F054FC134E0446B6
:104F8000306868B132212046FBF709FB6A462146AA
:104F9000306802F013F9012802D1204600F07AFAB5
:104FA0002146002000F032FC009838B108494FF04B
:104FB00080500860BFF34F8FBFF36F8F01212846E9
:104FC00000F07EF8F8BD0000004001401000002015
:104FD00004ED00E010B50A4C0121204600F07DF8F8
:104FE000012807D107490A684868521C40F10000AF
:104FF0000A6048602046BDE81040012100F060B81A
:1050000000040040600000207FB50D4604460121E9
:105010000220FFF7A7FE0194ADF800500024104DC8
:10502000ADF80240ADF808406946284600F06AF83D
:1050300001221146284600F05CF80121284600F0C4
:1050400042F81D208DF80C0001208DF80D008DF820
:105050000E408DF80F0003A8FFF730FE7FBD000063
:10506000000400407FB50D46044601210804FFF707
:1050700085FE0194ADF800500024104DADF80240BB
:10508000ADF808406946284600F03CF80122114678
:10509000284600F02EF80121284600F014F81820C8
:1050A0008DF80C0008208DF80D008DF80E400120C1
:1050B0008DF80F0003A8FFF701FE7FBD00400140FF
:1050C000C943018270470029018802D041F00101E3
:1050D00001E021F001010180704702460020138A9F
:1050E00092890B4202EA010202D0002A00D001207C
:1050F0007047002A828901D00A4300E08A438281F6
:105100007047000030B50288164C174DA0420DD0F4
:10511000A8420BD0B0F1804F08D0144B984205D074
:10512000134B984202D0134B984203D122F07003E4
:105130004A881A43104B984206D0104B984203D02D
:1051400022F440730A891A4302804A68C2620A88BC
:105150000285A04201D0A84201D1897A01860121AD
:10516000818230BD00000140000401400004004085
:1051700000080040000C00400010004000140040F7
:10518000F8B5224E40F22551304600F053F8204C3D
:105190000025C8B1304600F0DBF8C1B22088020417
:1051A00015D4420404D50A290DD140F400402AE068
:1051B0000D2926D0C0F30D02164B401C80B2995425
:1051C0002080312800D925802088000418D5124875
:1051D0000068002814D000236A460E4901F07EFFC3
:1051E000258032210B48FBF7DAF90098002807D018
:1051F0000A494FF080500860BFF34F8FBFF36F8FA5
:10520000F8BD40F480402080DEE70000001001403F
:1052100072000020360100201000002004ED00E0A4
:105220000029818902D041F4005101E021F40051AC
:105230008181704770B501F01F0501260024C1F37C
:10524000421306FA05F2012B0FD0022B0FD0838AEE
:105250004FEA11210088134206FA01F600EA06001F
:1052600001D000B10124204670BD8389F0E7038A94
:10527000EEE710B5C1F3421301F01F040121A14074
:10528000012B07D0022B07D01430002A026805D06A
:105290000A4304E00C30F8E71030F6E78A43026076
:1052A00010BD00007FB50446008A0D46C98820F471
:1052B000405001432182A08941F20C618843A988B2
:1052C0002A8911436A8902431143A181A08A20F4EB
:1052D0004071A8890843A0826846FFF75BFD1A4821
:1052E000844202D01948844201D1039800E0029818
:1052F000A189090400EBC00101EB0010296801D568
:10530000490000E08900B0FBF1F06422B0FBF2F14B
:1053100009010B096FF018056B4300EB8300A389AB
:105320001D044FF0320306D503EBC000B0FBF2F0D2
:1053300000F0070005E003EB0010B0FBF2F000F016
:105340000F00084320817FBD001001400014014080
:105350008088C0F308007047FEE770477CB501F015
:10536000BFF81A4C206901F065F8C5B2206901F058
:105370003FF80646206901F05DF83044C6B21421BA
:10538000002000F04FFA0446324611A1FAF7E0FF80
:105390001026CDE900643346642296210A20FFF7E7
:1053A00019FC2A460EA12046FAF7D2FFCDE9006487
:1053B00010236422BE210A20FFF70CFC21460020A6
:1053C00000F024FABDE87C4001F0C6B800000020DF
:1053D000546F74616C2053697A653A25640000004B
:1053E00052656D61696E2053697A653A25640000E3
:1053F00010B504460420FFF76FFD0A484FF47A7198
:10540000047014FB01F1012242804FF0E020026998
:1054100042F0020202614161016941F00101016152
:1054200010BD00006E00002070B5044601F090FF32
:1054300001280CD0094D6888844203D3B4FBF0F0F6
:1054400001F094F96888B4FBF0F100FB11444FF4CB
:105450007A706043BDE8704000F002B86E00002032
:1054600070B54FF0E02500216C69094AAB691278EC
:105470005043AA699A42FCD002D2A3EB020302E095
:10548000A4EB02063344194413468142F1D370BDA4
:105490006E0000201CB54FF6FF7104460091F52305
:1054A0006E22E6210520FBF771FD1020CDE90004F6
:1054B00003466422E6210520FFF78CFB1CBD00009B
:1054C00003490A885206FCD5C2B28A8070470000A0
:1054D000001001407CB5334D4FF4784610242E80E7
:1054E00031A0CDE900400A212346C8220846FFF733
:1054F00071FB32A0CDE900401023C8221E210A20F2
:10550000FFF768FB32A0CDE900401023C82232210A
:105510000A20FFF75FFB32A0CDE900401023DC2218
:1055200046210A20FFF756FB35A0CDE900401023A5
:10553000C8225A210A20FFF74DFB00206B23288048
:10554000EF221946FBF724FC772240F23F136B2130
:105550001046FBF71DFC4FF49D73EA226E217D205F
:10556000FBF770FC2E802CA0CDE9004010237822A0
:1055700082210020FFF72EFB2BA0CDE90040102355
:105580007822AA210020FFF725FB2BA0CDE90040BF
:1055900010236422D2210020FFF71CFB1F2028804B
:1055A0007CBD00006800002041544B2053544D3313
:1055B00032463130332F3430370000004672656593
:1055C00052544F53204578616D702031332D310096
:1055D0004D657373616765205175657565000000E1
:1055E0004B45595F55503A4C454431204B45593055
:1055F0003A52656672657368204C434400000000AF
:105600004B4559313A53656E644D7367204B45598C
:10561000323A424545500000444154415F4D736762
:105620002053697A653A0000444154415F4D7367E5
:105630002072656D613A0000444154415F4D7367CB
:105640003A0000001CB54FF44070FFF769FBA8203A
:10565000FFF7CEFE4FF4E13000F062FEFFF70CFBE7
:10566000FBF7ECF9FBF7F0F8FBF7D6FC44F29F11DF
:1056700041F28830FFF7F6FC002000F047F8FFF712
:1056800029FF07490120CDE900010202002305A1FD
:10569000074801F031FE01F0C9F900201CBD0000EF
:1056A0000000002073746172745F7461736B00009A
:1056B0000D62000870B5134A131893F8203093B1A7
:1056C000114B53F820308B421AD90F4B02EB80025A
:1056D0000C3B53F820305069B1FBF3F130F8114026
:1056E0000020034608E011688847012070BD556915
:1056F0000E18401C25F81630A042F8DB002070BDC3
:10570000022070BD880000206892000870B5044631
:105710000B480C4E002150F8240006EB8405420093
:10572000686900F08FF806480021183050F82420EE
:10573000A86800F087F80120311981F8200070BDB9
:1057400050920008880000202DE9F0411F4E0546C8
:10575000002470190F4690F8200010B931682846CF
:1057600088474FF0FF327FB3194B53F82510B7FB32
:10577000F1F0B7FBF1FC01FB1C7101B1401C1449B5
:105780000C3951F82510491E1ED406EB85067769A1
:1057900037F811C0BCF1000F05D00024844211D1AC
:1057A000002284B207E0641CF8E7776901EB020C81
:1057B000521C27F81C408242F7D353F82500484377
:1057C000BDE8F081491EE3D51046F9E788000020C6
:1057D0005C92000810B50B4B0B4C002253F82030A4
:1057E000114604EB800005E0446934F8114004B12F
:1057F000521C491C8B42F7D864204243B2FBF3F0A1
:10580000C0B210BD5092000888000020002906D0C8
:10581000034A02EB80029268891AFFF74BBF704778
:105820008800002010B50446FFF78EFF411C05D00C
:10583000034901EB84018968084410BD002010BDB4
:105840008800002001E000F8011B521EFBD27047C7
:105850002DE9F041184E0F460446F5683068001DEA
:1058600000F0B4FD38B9306890F82C100120884061
:10587000316981433161601C07D137B13168BDE8BE
:10588000F0410E48091D00F01FBE30682C44AC42A8
:105890004460316805D2306CBDE8F041091D00F06C
:1058A000FBBDF06B091D00F0F7FDB06A844200D229
:1058B000B462BDE8F0810000AC000020900301203C
:1058C0002DE9F041054600F00BFE2D4EB068401C5E
:1058D000B06030682B4F10B1706930B32BE0356089
:1058E000B068012827D1002404EB840007EB800076
:1058F00000F0C4FD641C202CF6D3234800F0BEFD4C
:105900002148143000F0BAFD1F48283000F0B6FDE1
:105910001D483C3000F0B2FD1B48503000F0AEFD99
:105920001948F0631430306405E03068E96AC06AF1
:10593000884200D83560706A0121401C7062A864FA
:10594000E86A326981401143316100EB800007EB66
:105950008000291D00F0B8FD00F0FEFD70690028F0
:105960000CD03068E96AC06A884207D207494FF014
:1059700080500860BFF34F8FBFF36F8FBDE8F08199
:10598000AC000020C00001204003012004ED00E035
:1059900010B500F0A5FD0E4C2068A0B90D4800F030
:1059A0006DFD0C48143000F069FD0A48E0601430C9
:1059B000206100221021052001F07AF9206010B149
:1059C00005A100F09FFEBDE8104000F0C5BD00003D
:1059D000F0000020A4030120546D7251000000006B
:1059E00070B5124E124D1CE001F06CF8306820B119
:1059F000002401F0DBFDA4B901E00124F9E700F087
:105A00006FFDF068C468201D00F0E0FCA868401E2F
:105A1000A8606868401E686000F09EFD204600F0A7
:105A200052F868680028DFD170BD00007C030120B7
:105A3000AC00002030B4026C0B46002A0BD0C168C9
:105A40001144C1604468A14201D30168C16030BC07
:105A50001846FAF757BD30BC70472DE9F041856B09
:105A6000174604460026026C82B1C7B1E068FAF717
:105A700049FDE168206C091AE1602268914202D276
:105A80006168081AE060022F16D017E02068A8B9F4
:105A9000606801F0E5FC0646002060600EE0A0684A
:105AA000FAF730FD216CA0680844A0606168884264
:105AB00004D32068A06001E005B16D1E6D1CA563D4
:105AC0003046BDE8F08110B50446006B00F076FD6D
:105AD0002046BDE8104000F071BD000010484FF4B2
